:100000000C9472000C9493000C9493000C94930045
:100010000C9493000C9493000C9493000C94930014
:100020000C9493000C9493000C9493000C94930004
:100030000C9493000C9493000C9493000C949300F4
:100040000C9493000C9493000C9493000C949300E4
:100050000C9493000C9493000C9493000C949300D4
:100060000C9493000C9493000C9493000C949300C4
:100070000C9493000C9493000C9493000C949300B4
:100080000C9493000C9493000C9493000C949300A4
:100090000C9493000C9493000C9493000C94930094
:1000A0000C9493000C9493000C9493000C94930084
:1000B0000C9493000C9493000C9493000C94930074
:1000C0000C9493000C9493000C9493000C94930064
:1000D0000C9493000C9493000C9493000C94930054
:1000E0000C94930011241FBECFEFD1E2DEBFCDBF31
:1000F00000E00CBF12E0A0E0B2E0EAE5F1E000E0D1
:100100000BBF02C007900D92A030B107D9F722E0D3
:10011000A0E0B2E001C01D92A030B207E1F70E945A
:1001200095000C94AB000C9400000B9A139A2FEFDF
:1001300083ED90E3215080409040E1F700C0000043
:1001400013982FEF83ED90E3215080409040E1F72A
:0A01500000C00000EBCFF894FFCFD1
:00000001FF
